:100000000C949B030C94C3030C94C3030C94C30380
:100010000C94C3030C94C3030C94C3030C946B148F
:100020000C94C3030C94C3030C94C3030C94C30338
:100030000C94C3030C94C3030C94C3030C94C30328
:100040000C9421140C94C3030C94C3030C94C303A9
:100050000C94C3030C94C3030C94C3030C94C30308
:100060000C94C7140C94C303084AD73B3BCE016ED3
:1000700084BCBFFDC12F3D6C74319ABD56833DDAFF
:100080003D00C77F11BED9E4BB4C3E916BAAAABE0E
:10009000000000803F05A84CCDB2D44EB93836A937
:1000A000020C50B9918688083CA6AAAA2ABE000074
:1000B00000803F07634236B79BD8A71A39685618A5
:1000C000AEBAAB558C1D3CB7CC5763BD6DEDFD751D
:1000D0003EF6177231BF000000803F08000000BEEE
:1000E000922449123EABAAAA2ABECDCCCC4C3E00EB
:1000F000000080BEABAAAAAA3E00000000BF00001C
:1001000000803F0000000000084178D3BB4387D146
:10011000133D190E3CC3BD4282AD2B3E68EC827686
:10012000BED98FE1A93E4C80EFFFBE01C4FF7F3FE7
:1001300000000000000000000000003E5B4F5B3E3E
:100140003E6B4F6B3E1C3E7C3E1C183C7E3C181C9C
:10015000577D571C1C5E7F5E1C00183C1800FFE793
:10016000C3E7FF0018241800FFE7DBE7FF30483A39
:10017000060E2629792926407F050507407F05259B
:100180003F5A3CE73C5A7F3E1C1C08081C1C3E7F23
:1001900014227F22145F5F005F5F06097F017F00EA
:1001A0006689956A606060606094A2FFA29408040A
:1001B0007E040810207E201008082A1C08081C2A2B
:1001C00008081E101010100C1E0C1E0C30383E3883
:1001D00030060E3E0E06000000000000005F00002A
:1001E0000007000700147F147F14242A7F2A12239B
:1001F0001308646236495620500008070300001CAB
:100200002241000041221C002A1C7F1C2A08083EB3
:1002100008080080703000080808080800006060C6
:100220000020100804023E5149453E00427F400034
:1002300072494949462141494D331814127F10270C
:10024000454545393C4A494931412111090736495B
:10025000494936464949291E00001400000040342F
:100260000000000814224114141414140041221434
:100270000802015909063E415D594E7C1211127C5B
:100280007F494949363E414141227F4141413E7FBC
:10029000494949417F090909013E414151737F089C
:1002A00008087F00417F41002040413F017F081442
:1002B00022417F404040407F021C027F7F040810A3
:1002C0007F3E4141413E7F090909063E4151215E81
:1002D0007F09192946264949493203017F01033F15
:1002E0004040403F1F2040201F3F4038403F6314A4
:1002F00008146303047804036159494D43007F41A6
:1003000041410204081020004141417F04020102E2
:100310000440404040400003070800205454784007
:100320007F284444383844444428384444287F389B
:100330005454541800087E090218A4A49C787F081D
:1003400004047800447D40002040403D007F102898
:10035000440000417F40007C047804787C08040459
:10036000783844444438FC1824241818242418FCF1
:100370007C08040408485454542404043F44243C96
:100380004040207C1C2040201C3C4030403C442805
:100390001028444C9090907C4464544C440008369F
:1003A000410000007700000041360800020102040D
:1003B000023C2623263C1EA1A161123A4040207A2D
:1003C0003854545559215555794122545478422175
:1003D0005554784020545579400C1E5272123955AC
:1003E00055555939545454593955545458000045A9
:1003F0007C410002457D420001457C407D12111286
:100400007DF0282528F07C545545002054547C5418
:100410007C0A097F4932494949323A4444443A32D4
:100420004A4848303A4141217A3A42402078009D7A
:10043000A0A07D3D4242423D3D4040403D3C24FF26
:100440002424487E4943662B2FFC2F2BFF0929F6D5
:1004500020C0887E090320545479410000447D4126
:100460003048484A32384040227A007A0A0A727D7F
:100470000D19317D2629292F28262929292630489A
:100480004D4020380808080808080808382F10C808
:10049000ACBA2F102834FA00007B000008142A148C
:1004A0002222142A14085500550055AA55AA55AA07
:1004B000FF55FF55FF000000FF00101010FF001453
:1004C0001414FF001010FF00FF1010F010F01414AF
:1004D00014FC001414F700FF0000FF00FF1414F4D4
:1004E00004FC141417101F10101F101F1414141FD5
:1004F00000101010F0000000001F101010101F104E
:10050000101010F010000000FF101010101010104C
:100510001010FF10000000FF140000FF00FF00009B
:100520001F10170000FC04F414141710171414F40F
:1005300004F40000FF00F714141414141414F7004A
:10054000F7141414171410101F101F141414F4149B
:100550001010F010F000001F101F0000001F14000A
:100560000000FC140000F010F01010FF10FF141435
:1005700014FF141010101F00000000F010FFFFFF08
:10058000FFFFF0F0F0F0F0FFFFFF0000000000FFC1
:10059000FF0F0F0F0F0F3844443844FC4A4A4A34C7
:1005A0007E02020606027E027E02635549416338DE
:1005B00044443C04407E201E2006027E020299A58F
:1005C000E7A5991C2A492A1C4C7201724C304A4DED
:1005D0004D303048784830BC625A463D3E49494922
:1005E000007E0101017E2A2A2A2A2A44445F4444CB
:1005F00040514A444040444A51400000FF0103E05A
:1006000080FF000008086B6B083612362436060F90
:10061000090F06000018180000001010003040FFFD
:100620000101001F01011E00191D1712003C3C3C76
:100630003C00000000004F4646004F4E004F46462B
:10064000004F4E002020204D6F6F6E20312F342040
:1006500053657420002020202020204E6577204DF7
:100660006F6F6E200020202020202046756C6C20AB
:100670004D6F6F6E20002020204D6F6F6E20312F48
:1006800034205269736520004D4F4F4E2050484131
:10069000534553202D20004F4646004F4E005349EE
:1006A000473A2020004F4646004F4E003A003E0099
:1006B0004F4646004F4E003A0053415400505320DD
:1006C000004453540053494700414C4D2000202022
:1006D0002020002055544320000000000024002763
:1006E000002A00000000002300260029000000006E
:1006F00008000201000003040700000000000000E1
:1007000000010204081020408001020408102001AA
:10071000020408102000000000250028002B00041F
:100720000404040404040402020202020203030398
:1007300003030302E61511241FBECFEFD8E0DEBF8E
:10074000CDBF27E0AAE7B6E001C01D92AF3AB207DD
:10075000E1F716E0A0E0B1E0E2EFFCE602C00590B0
:100760000D92AA37B107D9F713E0CBE9D3E004C063
:100770002197FE010E94D931CA39D107C9F70E94D9
:1007800023160C9477360C94000080915F07875FE6
:1007900080935F07089528E030E040E8E091A107EA
:1007A000F091A20750819091A8079095952390838E
:1007B000E0919F07F091A0079091A707582F54232D
:1007C00089F05081952B9083E091A107F091A207C9
:1007D00090815091A807952B90834695215031091F
:1007E000E9F60895508190959523EDCF833081F0FF
:1007F00028F4813099F08230A9F008958730A9F06B
:100800008830C9F08430B1F4809180008F7D03C0BE
:10081000809180008F7780938000089584B58F77D2
:1008200084BD089584B58F7DFBCF8091B0008F7714
:100830008093B00008958091B0008F7DF9CFCF9361
:10084000DF93282F30E0F901E351F94F8491F9014A
:10085000EF5FF84FD491F901E15EF84FC491CC23DA
:10086000A1F081110E94F603EC2FF0E0EE0FFF1FC4
:10087000ED51F94FA591B491EC91ED2381E090E019
:1008800009F480E0DF91CF91089580E090E0FACF05
:100890001F93CF93DF93282F30E0F901E351F94FF5
:1008A0008491F901EF5FF84FD491F901E15EF84FBF
:1008B000C491CC23A9F0162F81110E94F603EC2FCE
:1008C000F0E0EE0FFF1FEB5EF84FA591B4918FB7EC
:1008D000F894EC91111108C0D095DE23DC938FBF02
:1008E000DF91CF911F910895DE2BF8CFCF93DF9347
:1008F00090E0FC01EF5FF84F2491815E984FFC017E
:1009000084918823D1F090E0880F991FFC01E75271
:10091000F94FA591B491FC01EB5EF84FC591D491CC
:1009200061110EC09FB7F8948C91E22FE0958E2351
:100930008C932881E223E8839FBFDF91CF910895B4
:100940008FB7F894EC91E22BEC938FBFF6CF4F92D8
:100950005F926F927F928F929F92AF92BF92CF924F
:10096000DF92EF92FF920F931F93CF938C016A0156
:100970007B0180911105883099F08F3F09F453C0B5
:10098000CF911F910F91FF90EF90DF90CF90BF908C
:10099000AF909F908F907F906F905F904F90089551
:1009A000E3E3F7E0C491C7FDEBCF61E088E00E948C
:1009B00076042801712C612CCC23F1F0980150E0D1
:1009C00040E0C23009F09EC028013A0164E274EFB1
:1009D00080E090E00E94A63149015A0181E0881A26
:1009E0009108A108B10895E08FEF88169104A10441
:1009F000B10409F00CF4DFC062E17AE780E090E036
:100A0000A30192010E94A63149015A0181E0881A8E
:100A10009108A108B10896E0C111CDC085B5887FC5
:100A2000846085BD84C088E080931105E3E3F7E02E
:100A3000C491CF3F09F4A4CFC13021F150F0C230AE
:100A400009F43EC0C7FD9CCF61E088E00E947604B7
:100A5000B5CF14BC15BC84B5826084BD85B58160FA
:100A600085BDE7E2F7E0E491F0E0EE0FFF1FEB5EFB
:100A7000F84F85919491E9E0F7E0E491E093640701
:100A8000C0E093CF1092800010928100809181008D
:100A900088608093810080918100816080938100D3
:100AA000E7E2F7E0E491F0E0EE0FFF1FEB5EF84FB6
:100AB00085919491E9E0F7E0E491E093630775CFC5
:100AC0001092B0001092B1008091B00082608093CB
:100AD000B0008091B10081608093B100E7E2F7E05F
:100AE000E491F0E0EE0FFF1FEB5EF84F85919491DB
:100AF0009093620780936107E9E0F7E0E491E09367
:100B0000600753CF60E072E18AE790E00E94A6316F
:100B100049015A0181E0881A9108A108B108C13041
:100B200031F480918100887F816080938100D801B9
:100B3000AA0FBB1FA70196010E948F2D28EE33E05C
:100B400040E050E00E948431C13099F0C23019F188
:100B5000C11116CF87BC20936D0730936E07409369
:100B60006F075093700780916E00826080936E00D3
:100B700007CF909289008092880020936907309374
:100B80006A0740936B0750936C0780916F008260F7
:100B900080936F00F5CE8092B30020936507309369
:100BA00066074093670750936807809170008260E2
:100BB00080937000E5CE8091B100887F892B80936F
:100BC000B100B5CF3FB7F89480910B0790910C0717
:100BD000A0910D07B0910E0726B5A89B05C02F3F29
:100BE00019F00196A11DB11D3FBFBA2FA92F982F53
:100BF0008827BC01CD01620F711D811D911D42E04E
:100C0000660F771F881F991F4A95D1F708958F9215
:100C10009F92AF92BF92CF92DF92EF92FF924B01E1
:100C20005C010E94E2056B017C010E94E2056C19E7
:100C30007D098E099F09683E734081059105A8F3DF
:100C400021E0821A9108A108B10888EEC80E83E05D
:100C5000D81EE11CF11C81149104A104B10429F7F0
:100C6000FF90EF90DF90CF90BF90AF909F908F90CC
:100C70000895089508959091110589130BC0E3E339
:100C8000F7E0E4919FEF90931105E13049F028F0EF
:100C9000E23061F060E00C94480410926E00FACFEC
:100CA00090916F009D7F90936F00F4CF90917000B2
:100CB0009D7F9093700091E09093B0009091B1006F
:100CC000987F94609093B1001092B300E3CFAF92FD
:100CD000BF92CF92DF92EF92FF920F931F93CF9329
:100CE000DF936C017B018B01040F151FEB015E018B
:100CF000AE18BF08C017D10759F06991D601ED9120
:100D0000FC910190F081E02DC6010995892B79F7BE
:100D1000C501DF91CF911F910F91FF90EF90DF9070
:100D2000CF90BF90AF9008950F931F93CF93DF9311
:100D3000EC018D89823009F453C0833009F4ACC0D2
:100D4000813009F05CC0EC81FD81E41BF50BAF0143
:100D5000421B530B77FD3FC08E819F816817790737
:100D6000D4F557FF04C0240F351F50E040E08C81BC
:100D70009D81FA01E20FF31F8E179F071CF49C015F
:100D8000241B350B1216130634F5FB0177FD37963D
:100D9000A3E0F595E795AA95E1F7F695FE2FEE27E6
:100DA000F795E795E40FF51FEF5EFE4F6770772725
:100DB00081E090E001C0880F6A95EAF7482F013082
:100DC000110509F472C008F47CC02E0F3F1F0230D9
:100DD000110509F483C0DF91CF911F910F91089500
:100DE000AC81BD81CD01861B970BBC01615071099F
:100DF000EE81FF81E41BF50BAF01421B530B77FD26
:100E0000EACF8C819D81681779072CF757FF04C0C2
:100E1000240F351F50E040E08E819F81FA01E20FE0
:100E2000F31F8E179F071CF49C01241B350B121611
:100E300013068CF6922FA42FA695A695A69580E86A
:100E4000A89FD0011124A60FB71FAF5EBE4F4770F9
:100E500009F457C058E0541B452F652F70E0FB0183
:100E6000E45CFA4F8081251708F0B0C0621B71095D
:100E70002FEF30E002C0359527956A95E2F782237F
:100E800001301105A9F108F464C00230110509F020
:100E9000A2CF2C9182272EC0AE81BF81CD01861BAF
:100EA000970BBC016150710955CF2E0F3F1FE21700
:100EB000F30709F490CF8191DF011197842B8C9374
:100EC000F6CF80952E0F3F1FE217F30709F483CF6B
:100ED0009191DF01119798239C93F6CFE217F307C6
:100EE00009F479CF8191DF01119784278C93F6CF94
:100EF0002C91822B8C93941708F46DCF941BA058DF
:100F0000BF4F983008F447C00230110531F5FD019C
:100F1000892F208120952083E058FF4F885088300A
:100F2000C0F728EF290F26952695269530E02F5FEC
:100F30003F4F3695322F222737952795A20FB31FA3
:100F4000977009F448CFE92FF0E0EC5CFA4F80810C
:100F500032C080952C918223CDCF81E001301105E4
:100F600009F080E08195FD01292F8083E058FF4F33
:100F700028502830D0F728EF290F2695269526955A
:100F800030E02F5F3F4F3695322F22273795279538
:100F9000A20FB31F9770992309F41DCFE92FF0E03A
:100FA000EC5CFA4F80810130110541F058F00230BD
:100FB000110509F010CF9C91892702C09C91892BC3
:100FC0008C9309CF80959C918923FACF013011052C
:100FD00009F48ECF08F4BDCF0230110509F459CFC2
:100FE0008DCF2F923F924F925F926F927F928F920E
:100FF0009F92AF92BF92CF92DF92EF92FF920F93A8
:101000001F93CF93DF9300D000D000D0CDB7DEB7D1
:101010004C017E836D835A0181E090E07C01E61AE9
:10102000F70A1B01319421943108220C331C6624E9
:101030006394712CD12CC12CF7FC0BC02D813E8107
:10104000215031093E832D8332E0230E311CE20C06
:10105000F31C4FEFC41AD40A52E0650E711CE60C63
:10106000F71C4D805E80440C551C8FEF481A580ABF
:10107000B4016C0D7D1D8501920140E350E08D812E
:101080009E81481B590B5A8349838DE797E00E9444
:10109000940620E330E02C193D093C832B83930117
:1010A0004B815C816D817E81680D791D8DE797E0B4
:1010B0000E949406B4016C197D09920149815A81FC
:1010C0008DE797E00E94940693014B815C81B40107
:1010D0008D819E81681B790B8DE797E00E949406B5
:1010E0002D813E81C216D3060CF4A6CF26960FB6EC
:1010F000F894DEBF0FBECDBFDF91CF911F910F914E
:10110000FF90EF90DF90CF90BF90AF909F908F9027
:101110007F906F905F904F903F902F9008950F9326
:101120001F93CF93DF93EC018D89823009F45EC069
:10113000833009F4B5C0813009F067C0AC81BD814E
:10114000CD01841B950BAC014150510957FD49C09D
:101150008C819D81481759070CF043C077FF04C06C
:10116000260F371F70E060E08E819F81FB01E20F48
:10117000F31F8E179F071CF49C01261B370B1216BA
:1011800013067CF5922FA62FA695A695A69580E826
:10119000A89FD0011124A40FB51FAF5EBE4F67708A
:1011A00009F48FC048E0461B642F70E0FB01E45C4B
:1011B000FA4F8081241708F002C1621B71092FEFDA
:1011C00030E002C0359527956A95E2F78223013019
:1011D000110509F46DC008F49CC00230110509F432
:1011E000F8C0DF91CF911F910F910895EC81FD819F
:1011F000E61BF70BAE81BF81CD01841B950BAC01C3
:1012000041505109BF01621B730B57FDEACF8E811C
:101210009F81481759072CF777FF04C0260F371F07
:1012200070E060E08C819D81FB01E20FF31F8E175F
:101230009F071CF49C01261B370B121613068CF615
:10124000FA0157FD379693E0F595E7959A95E1F702
:10125000F695FE2FEE27F795E795E60FF71FEF5E61
:10126000FE4F4770552781E090E001C0880F4A95F6
:10127000EAF7482F0130110509F488C008F492C03C
:101280002E0F3F1F0230110509F0ABCFE217F30715
:1012900009F4A7CF8191DF01119784278C93F6CFB2
:1012A000EE81FF81E61BF70BBF01621B730B4ECF74
:1012B0002C91822B8C93941708F493CF941BA058F5
:1012C000BF4F983008F447C00230110531F5FD01D9
:1012D000892F208120952083E058FF4F8850883047
:1012E000C0F728EF290F26952695269530E02F5F29
:1012F0003F4F3695322F222737952795A20FB31FE0
:10130000977009F46ECFE92FF0E0EC5CFA4F808122
:1013100032C080952C918223CDCF81E00130110520
:1013200009F080E08195FD01292F8083E058FF4F6F
:1013300028502830D0F728EF290F26952695269596
:1013400030E02F5F3F4F3695322F22273795279574
:10135000A20FB31F9770992309F443CFE92FF0E050
:10136000EC5CFA4F80810130110541F058F00230F9
:10137000110509F036CF9C91892702C09C91892BD9
:101380008C932FCF80959C918923FACF2E0F3F1FEE
:10139000E217F30709F425CF8191DF011197842B20
:1013A0008C93F6CF80952E0F3F1F2E173F0709F421
:1013B00018CF9191DF01119798239C93F6CF0130BC
:1013C000110509F475CF08F4A4CF0230110509F016
:1013D00075CF2C9182276ECFDC0177FD67C0189600
:1013E0008D919C911997681779070CF05FC057FD94
:1013F0005DC01A968D919C911B97481759070CF068
:1014000055C055968C9155978230B9F0833041F193
:10141000813049F414968D919C91841B950BAB01FE
:10142000BC01615071092130310521F108F43FC040
:101430002230310509F458C008951496ED91FC91BD
:101440001597E61BF70BBF016150710916968D9138
:101450009C91FC01E41BF50BAF0141505109E3CF16
:1014600016968D919C91861B970BBA01AC01415049
:101470005109D9CFFA0157FD3796A3E0F595E795C5
:10148000AA95E1F7F695FE2FEE27F795E795E60F7B
:10149000F71FEF5EFE4F4770552721E030E001C097
:1014A000220F4A95EAF78081822B80830895FA0102
:1014B00057FD379623E0F595E7952A95E1F7F695E0
:1014C000FE2FEE27F795E795E60FF71FEF5EFE4F2D
:1014D0004770552781E090E001C0880F4A95EAF7F0
:1014E000809590818923E1CFFA0157FD379683E0FB
:1014F000F595E7958A95E1F7F695FE2FEE27F79596
:10150000E795E60FF71FEF5EFE4F4770552721E086
:1015100030E001C0220F4A95EAF780818227C5CFCB
:1015200008952F923F924F925F926F927F928F9287
:101530009F92AF92BF92CF92DF92EF92FF920F9362
:101540001F93CF93DF93CDB7DEB768970FB6F894AC
:10155000DEBF0FBECDBF1C015A8349831C830B83A2
:10156000FE82ED82FC01408D518D4115510509F03F
:10157000BBC080859185681779070CF077C082859C
:10158000938549815A81481759070CF06FC0AC2CDC
:10159000B12CCB0156E0C59E800D911D112418166B
:1015A00019060CF063C0C50133E0880F991F3A9506
:1015B000E1F7A981BA818A0F9B1F181619060CF052
:1015C00055C08789811103C0203B08F02F5F7E87BB
:1015D0006D874B01D12C86E391E0861B970BFC01B4
:1015E00035E0239FE00DF11D1124FB87EA8745E0DC
:1015F000E0E0D41629F0EA85FB85E80DF91DE491B9
:1016000069807A80512C412C6E2F70E07987688731
:10161000E0FF52C0D101ED91FC91B1E0CB123FC08F
:101620000084F185E02D2B813C8149815A81440D54
:10163000551DB401C1010995E885F985F595E79532
:10164000FFEF4F1A5F0A6A0C7B1C28E04216510418
:10165000D9F63FEF831A930A4D855E854A0D5B1DCF
:101660005E874D87D39456E0D512C1CF68960FB6EA
:10167000F894DEBF0FBECDBFDF91CF911F910F91C8
:10168000FF90EF90DF90CF90BF90AF909F908F90A2
:101690007F906F905F904F903F902F9008950288B9
:1016A000F389E02DEB80FC8085019501A3016D8518
:1016B0007E85C1010995C0CFEB81FC812D813E81E2
:1016C000E217F30709F4B8CFD101ED91FC91B1E035
:1016D000CB1204C00084F185E02DA7CF0288F389E6
:1016E000E02DED80FE80E0CFFA0134963491329700
:1016F00085919491231BE7E02E9F800D911D11246D
:10170000FA01259134913E872D87FC014590549034
:10171000FC01329634913F83319644914C87319647
:10172000E491FC01359624910696FC018491F1E048
:10173000FC1550F4A22F022E000CBB0B482F082ED4
:10174000000C550B5B874A87AC2CB12CAA9DA001DD
:10175000AB9D500DBA9D500D1124DA01A60FB71F95
:10176000BE83AD83D12C912CBA8AA98AE981FA81F2
:10177000E80FF11D87FDFA95FC8BEB8BAB01420F57
:10178000511D27FD5A955E8B4D8B5C85951608F093
:101790006DCF892D90E04A855B85480F591F698977
:1017A0007A89469F9001479F300D569F300D112436
:1017B000A981BA81A20FB31FB987A8876D807E80E7
:1017C000188E1F8AEB89FC89E80FF91FF88BEF87C9
:1017D000FF812F892F17D0F5D1100AC0C2010196C1
:1017E000ED85FE85E40DF51D84902C0180E8D82E52
:1017F000882D8D21A9F0D101ED91FC91B1E0CB12A2
:1018000018C00084F185E02D2B813C814F855889DB
:101810006D897E898F89988D680F791FC10109951F
:10182000D694AF89B88D1196B88FAF8B6A0C7B1C9C
:10183000CFCF0288F389E02DEB80FC8085019501F4
:1018400048855985B301C1010995EACF93949DCF8D
:10185000AF92BF92CF92EF92FF920F931F93CF93CD
:10186000DF93EC01262F888D998D009709F04FC0EA
:101870006A30C9F48C8948E0849F900111248E85D8
:101880009F85820F931F9F878E871D861C8681E010
:1018900090E0DF91CF911F910F91FF90EF90CF904B
:1018A000BF90AF9008956D3091F3CC888E898823D6
:1018B000C1F08C859D85E6E0CE9E800D911D1124A2
:1018C000488559858417950764F04E855F851D8688
:1018D0001C86F8E0CF9EC0011124840F951F9F87BE
:1018E0008E87EA88FB88088919894E855F856C8513
:1018F0007D85CE010E94910A2C898C859D8536E0DC
:10190000239F800D911D11249D878C87C0CF6A3045
:1019100079F41D861C86FC013696E4912C898E850F
:101920009F85E29F800D911D11249F878E87AFCFE9
:101930006D3009F4ACCFAC014C5F5F4FFA013491CC
:10194000631708F4A4CF3196E491E61708F49FCF0B
:10195000FA0144913297A590B490362F341BF7E0EA
:101960003F9FA00CB11C1124F501329634913196A1
:10197000E4913323A1F1EE2391F1CC88F501359662
:10198000E4914E89442301F10E2E000CFF0BE30F6E
:10199000F11DCE9EA001CF9E500D11246C857D853A
:1019A000460F571F68857985461757076CF04E8597
:1019B0005F851D861C860696FC018491C89E400D9D
:1019C000511D11245F874E87EA88FB880889198991
:1019D0004E855F856C857D85CE010E94910AF5015B
:1019E0003496E4912C898C859D85E29F800D911D14
:1019F00011248ACF0F931F93CF93DF938C01D0E0F4
:101A0000C0E0F801EC0FFD1F6491662341F08DE703
:101A100097E00E94280C892B11F02196F2CFCE017D
:101A2000DF91CF911F910F910895EF92FF920F9345
:101A30001F93DC011A960D911C911B9718962D91FE
:101A40003C911997ED91FC910288F389E02D7B017F
:101A500050E040E070E060E009951F910F91FF9029
:101A6000EF9008956F927F928F929F92AF92BF9264
:101A7000CF92DF92EF92FF920F931F93CF93DF935A
:101A80006C015A014801EB013B01620E731EC61541
:101A9000D70574F4D601ED91FC910484F585E02D11
:101AA00087019401A501BE01C60109952196EFCFDA
:101AB000DF91CF911F910F91FF90EF90DF90CF902A
:101AC000BF90AF909F908F907F906F900895EF920E
:101AD000FF920F931F93260F371F21503109DC010E
:101AE000ED91FC910284F385E02D78018A0109953E
:101AF0001F910F91FF90EF900895EF92FF920F9337
:101B00001F93240F351F21503109DC01ED91FC9109
:101B10000284F385E02D780189019B0109951F91CD
:101B20000F91FF90EF9008956F927F928F929F9206
:101B3000AF92BF92CF92DF92EF92FF920F931F93DB
:101B4000CF93DF93EC016B015A0139014801E88121
:101B5000F9810684F785E02D87010995A501480DD7
:101B6000591D41505109E881F9810684F785E02D1E
:101B70009301B601CE010995E881F9810484F585C8
:101B8000E02D9401A501B601CE010995C60CD71C24
:101B9000B60161507109E881F9810484F585E02D71
:101BA0009401A501CE010995DF91CF911F910F916D
:101BB000FF90EF90DF90CF90BF90AF909F908F906D
:101BC0007F906F9008952F923F924F925F926F9205
:101BD0007F928F929F92AF92BF92CF92DF92EF92BD
:101BE000FF920F931F93CF93DF9300D000D000D0CC
:101BF000CDB7DEB73C016A013E832D83FC82EB82C8
:101C00005801A41AB50AB7FE03C0B194A194B10853
:101C10008D809E80861A970A97FE03C091948194C6
:101C200091088A149B045CF0902F812F0D811E81F6
:101C30009D838E839C2D8D2D6B01692F782F0C1524
:101C40001D055CF09D818E817E836D83692F782FC9
:101C5000902F812F8601C92ED82E1601201A310A05
:101C60002B012D813E81421A530A57FE03C0519425
:101C700041945108710137FE03C03FEFE31AF30AA4
:101C8000F594E7948D819E81861797075CF5A1E016
:101C9000B0E0BA83A983C016D1064CF1D301ED910F
:101CA000FC910084F185E02D2B813C81A8016D81A0
:101CB0007E818A149B041CF04D815E81B801C301B2
:101CC0000995E418F508F7FE0AC02D813E81898147
:101CD0009A81280F391F3E832D83E20CF31C0F5F7E
:101CE0001F4FD9CF2FEF3FEF3A832983D4CF2696CA
:101CF0000FB6F894DEBF0FBECDBFDF91CF911F911D
:101D00000F91FF90EF90DF90CF90BF90AF909F909A
:101D10008F907F906F905F904F903F902F9008959D
:101D2000089520919B06260F3327331F213231055A
:101D3000ECF420913507FC0190E080E0243069F05C
:101D400082E00895A0919B062191AC014558594F1E
:101D5000A40FB52FB11D2C930196861798F380918F
:101D60009B06680F60939B0680E0089581E00895CC
:101D70001092350781E08093340710920F0761E0DD
:101D800082E10E94480461E083E10E944804E9EB9B
:101D9000F0E080818E7F808380818D7F808388E4E6
:101DA0008093B80085E48093BC000895CF93DF93BF
:101DB00091E090937A068823B9F0C091B800D09151
:101DC000BA008091BC008A7B8093BC0060E082E115
:101DD0000E94480460E083E10E9448040E94B80E1B
:101DE000D093BA00C093B800DF91CF910895CF92FD
:101DF000DF92EF92FF920F931F93CF93DF93D091D7
:101E00005E0781E0D13208F09CC0C0915D070E945E
:101E1000E2056B017C018091350781116CC082E085
:101E20008093350781E0809334078FEF80933307E9
:101E300010923207D0933107ADE3B7E0E1E1F7E06C
:101E400080E0D8138DC01092100780911007CC0F3E
:101E5000C82BC093100780910F07813009F084C010
:101E600010920F070E94E2056B017C018091100720
:101E70008093BB008091370790913807A091390774
:101E8000B0913A07892B8A2B8B2BA1F00E94E20597
:101E900000913707109138072091390730913A07A0
:101EA0006C197D098E099F0906171707280739073E
:101EB00008F442C08091BC0083FDD8CF85EC8093AC
:101EC000BC000E94E2056B017C01809135078230E5
:101ED00009F44CC0809133078F3F09F469C08091A9
:101EE0003307803209F466C080913307803309F4E8
:101EF00063C084E026C08091370790913807A09195
:101F00003907B0913A07892B8A2B8B2B09F483CFA1
:101F10000E94E20500913707109138072091390798
:101F200030913A076C197D098E099F09061717072A
:101F30002807390708F06FCF809136070E94D60E28
:101F400085E010923C0710925E0710923B07DF91EC
:101F5000CF911F910F91FF90EF90DF90CF90089558
:101F60009D9191938F5F6DCF85EEA9CF80913707BB
:101F700090913807A0913907B0913A07892B8A2BA5
:101F80008B2B09F4A2CF0E94E20500913707109134
:101F900038072091390730913A076C197D098E096D
:101FA0009F09061717072807390708F08ECFC4CFF7
:101FB00080E0C7CF82E0C5CF83E0C3CF0895E09132
:101FC000C4068091C306E81730F4F0E0EB53F94FF4
:101FD000808190E008958FEF9FEF08959091C4065F
:101FE0008091C3062FEF3FEF981748F4E92FF0E0F8
:101FF000EB53F94F208130E09F5F9093C406C901F5
:1020000008958091C3069091C406891B990B089589
:10201000CF92DF92EF92FF920F931F93CF93DF93B4
:102020007C01CB018A0120913B07222389F0EB013F
:102030006B01C40ED51ECC15DD0569F06991D70181
:10204000ED91FC910190F081E02DC7010995F3CF4E
:10205000642F0E94910EC801DF91CF911F910F91C3
:10206000FF90EF90DF90CF900895CF93DF931F9272
:10207000CDB7DEB7698320913B072223F9F0209189
:102080005E07203258F021E030E0FC0133832283E8
:1020900090E080E00F90DF91CF91089580913C0710
:1020A000E82FF0E0E35CF84F998190838F5F809395
:1020B0003C0780935E0781E090E0ECCF61E0CE01C9
:1020C00001960E94910EF7CFCF93C82F8091990768
:1020D0008F3FB1F1E091A307F091A4078081909127
:1020E000A907892B8083E091A507F091A60790812D
:1020F0008091AA07809589238083E091A307F091BE
:10210000A40790818091A90780958923808380917D
:102110009E07882389F0CEBD00000DB407FEFDCFD9
:102120008EB5E091A307F091A40780819091A90753
:10213000892B8083CF9108958C2F0E94CB03F1CF00
:102140008091970791E090933B0780935D071092F1
:102150003C0710925E0760E081E797E00E9435102F
:102160006C2F81E797E00E943510CF910C94F70E09
:10217000DF92EF92FF920F931F93CF93DF9381E251
:102180000E94641080E00E9464108FE70E94641037
:1021900082E20E94641080E00E94641087E00E9446
:1021A0006410809199078F3F09F442C0E091A30722
:1021B000F091A40780819091A907892B8083E091F9
:1021C000A507F091A60780819091AA07892B8083AB
:1021D000E091A307F091A40790818091A9078095D1
:1021E00089238083C1E1D1E001E115E089919091DB
:1021F0009E079923D1F08EBD00000DB407FEFDCFE0
:102200008EB50C171D0791F7E091A307F091A40775
:1022100080819091A907892B8083DF91CF911F91B5
:102220000F91FF90EF90DF9008950E94CB03E9CFCC
:102230000091B8008CE08093B800C1E1D1E0DD24CA
:10224000D39480919707D0923B0780935D071092BB
:102250003C0710925E0760E481E797E00E9435102A
:102260007E0110E1F70161917F0181E797E00E9413
:1022700035101150B9F70E94F70E6096F5E0C131A4
:10228000DF07F9F60093B800C8CF90E080E008952A
:1022900061E08BE00E9448046AEF70E080E090E02B
:1022A0000E94070660E08BE00C9448044AEF50E07F
:1022B00060E070E087EF90E00E94A70462EA70E0BF
:1022C00080E090E00E94070688E00C943B06CF93E4
:1022D000DF9361E08CE00E944804CAE0D0E04DE763
:1022E00050E060E070E081EC90E00E94A70462EAB8
:1022F00070E080E090E00E94070688E00E943B06C4
:102300004DE750E060E070E081EC90E00E94A704AF
:1023100062EA70E080E090E00E94070688E00E9498
:102320003B064DE750E060E070E081EC90E00E94F9
:10233000A70462EA70E080E090E00E94070688E06F
:102340000E943B066CED75E080E090E00E9407067D
:10235000219729F660E08CE0DF91CF910C9448043E
:10236000CF93DF93C4EFD1E00E94561183E00E9427
:102370001F04019741F064E670E080E090E00E9465
:102380000706219789F7DF91CF910895613011F405
:102390004F5F5F4F840F952F911D68E170E00E94A1
:1023A00070310895EF92FF920F931F93CF93DF93B5
:1023B000EC017B01FA01CA0160E971E00E94703111
:1023C0008C01CF0164E670E00E947031ACE1B5E0B1
:1023D000970150E040E02197E370FF274C175D071D
:1023E000B4F46D917D914130510549F4309761F419
:1023F0000115110511F0009739F06DE170E0260F1D
:10240000371F4F5F5F4FEACF6CE170E0F8CFC90133
:10241000DF91CF911F910F91FF90EF900895FC01F4
:1024200001900020E9F73197AF01481B590BBC011F
:102430008DE797E00C9467068F929F92AF92BF92C0
:102440000F931F93CF93DF93CDB7DEB7A1970FB64E
:10245000F894DEBF0FBECDBF19A2423008F44AE0A7
:102460008E010F5D1F4F842E912CB12CA12CA50144
:1024700094010E948431E62FB901CA01EA30F4F4D4
:10248000E05DD801EE938D01232B242B252B79F7CA
:1024900090E080E0109719F0CD010E940F12A196F4
:1024A0000FB6F894DEBF0FBECDBFDF91CF911F9165
:1024B0000F91BF90AF909F908F900895E95CE1CF0E
:1024C000CF93DF930E940F12EC0182E795E00E9408
:1024D0000F128C0F9D1FDF91CF9108950C940F1256
:1024E000CF93DF930E94FA0CEC0182E795E00E9403
:1024F0000F128C0F9D1FDF91CF910895E1E1F1E064
:1025000080E094E0DF019C011D9221503040E1F712
:102510000895682F70E090E080E04AE00C941C126F
:102520004F925F926F927F928F929F92AF92BF92E3
:10253000CF92DF92EF92FF920F931F93CF936B0195
:102540007C01742EAC019B010E943E30882399F0DF
:1025500085E795E0CF911F910F91FF90EF90DF906D
:10256000CF90BF90AF909F908F907F906F905F9033
:102570004F900C940F1246015701E894B7F82FEFD3
:102580003FEF4FE75FE7C501B4010E943E30811184
:102590000DC02FEF3FEF4FE75FE7C501B4010E9489
:1025A000552C18161CF489E795E0D4CF2FEF3FEF98
:1025B0004FE75FE4C701B6010E948F2F18161CF485
:1025C0008DE795E0C7CF2FEF3FEF4FE75FECC701F7
:1025D000B6010E94552C87FDF3CF20E030E0A90121
:1025E000C701B6010E94552C10E000E087FF0AC029
:1025F0006DE28DE797E00E94280C8C01F7FAF094C9
:10260000F7F8F094C0E060E070E080E09FE37C16B3
:1026100041F020E030E040E251E40E94812ECF5FA3
:10262000F6CFA70196010E94E12D2B013C010E94EB
:10263000FA2E4B015C014AE00E941C127C01E00E64
:10264000F11ECC23C1F1C501B4010E945A2C9B019B
:10265000AC01C301B2010E94E02D4B015C016EE2AE
:102660008DE797E00E94280CE80EF91EC15018F182
:1026700020E030E040E251E4C501B4010E94BB2CEF
:102680002B013C010E94FA2E4B01B12CA12C4AE0F7
:10269000C501B4010E941C12E80EF91EC501B40167
:1026A0000E945A2C9B01AC01C301B2010E94E02D93
:1026B0004B015C01DBCFC701CF911F910F91FF90C0
:1026C000EF90DF90CF90BF90AF909F908F907F90D2
:1026D0006F905F904F900895CF92DF92EF92FF92AC
:1026E000CF93DF936C01990FEE08FF08F7FE1FC030
:1026F0006DE28DE797E00E94280CEC0166277727B2
:10270000CB016C197D098E099F094AE00E941C12B9
:10271000C80FD91F82E795E00E940F128C0F9D1FF2
:10272000DF91CF91FF90EF90DF90CF9008954AE036
:10273000C701B6010E941C12EC01ECCF0E94C1330C
:10274000EF92FF920F931F93CF93DF93EC017B01E6
:10275000198218821B821A821D821C82FB01019041
:102760000020E9F731978F01061B170BB8016F5F47
:102770007F4F90E080E00E9404330097B9F0998386
:1027800088831B830A832C813D81232B11F4FC0158
:1027900010821D830C83B70188819981DF91CF91CD
:1027A0001F910F91FF90EF900C94CF338881998106
:1027B000009711F00E947B32198218821D821C82C0
:1027C0001B821A82DF91CF911F910F91FF90EF90A2
:1027D000089585ED8093BC0080913707909138076C
:1027E000A0913907B0913A070796A11DB11D23E0CA
:1027F000B695A795979587952A95D1F72091BC0016
:1028000024FD03C010923507089540913707509179
:1028100038076091390770913A07452B462B472BB3
:1028200069F30097A105B10541F02AE22A95F1F775
:1028300000C00197A109B109E1CF809136070C943E
:10284000D60E1F920F920FB60F9211242F933F9323
:102850008F939F93AF93BF93809107079091080741
:10286000A0910907B0910A073091060723E0230FD2
:102870002D3758F50196A11DB11D209306078093B1
:10288000070790930807A0930907B0930A07809160
:102890000B0790910C07A0910D07B0910E070196C0
:1028A000A11DB11D80930B0790930C07A0930D07FA
:1028B000B0930E07BF91AF919F918F913F912F9150
:1028C0000F900FBE0F901F90189526E8230F0296C9
:1028D000A11DB11DD2CF1F920F920FB60F921124DE
:1028E0002F933F934F935F936F937F938F939F9318
:1028F000AF93BF93EF93FF93809165079091660725
:10290000A0916707B0916807892B8A2B8B2BD1F197
:1029100090916007E0916107F091620780818927BB
:1029200080838091650790916607A0916707B091B9
:102930006807181619061A061B069CF4809165078D
:1029400090916607A0916707B09168070197A10968
:10295000B1098093650790936607A0936707B093CA
:102960006807FF91EF91BF91AF919F918F917F91F8
:102970006F915F914F913F912F910F900FBE0F90EC
:102980001F901895809111050E943B06EACF1F9277
:102990000F920FB60F9211242F933F934F935F9393
:1029A0006F937F938F939F93AF93BF93EF93FF9317
:1029B0008091B900887F803609F44AC0F0F58832EA
:1029C00009F4A7C018F5803109F49BC0B8F4882336
:1029D00009F4F9C0883009F494C0FF91EF91BF91D8
:1029E000AF919F918F917F916F915F914F913F91A7
:1029F0002F910F900FBE0F901F901895883109F4FA
:102A000088C0803251F78093330714C0803409F4B2
:102A10009DC040F48033B9F38833F9F680933307CF
:102A200085ECB0C0803509F485C0883509F496C0BE
:102A3000883499F60E94E913D0CF883909F48CC004
:102A400038F5883729F050F4883611F0803729F6A8
:102A500083E0809335071092BD0657C0883809F48B
:102A60007BC0803919F0803809F0B7CF8091BD065E
:102A7000803208F071C0E091BD0681E08E0F809336
:102A8000BD068091BB00F0E0E356F94F80833DC066
:102A9000803B39F0E0F4803A09F479C0883A09F0D3
:102AA0009CCF84E08093350710929C0610929B0681
:102AB000E091C006F091C106099580919B068111B5
:102AC0000FC081E080939B0610927B0609C0803C7A
:102AD00009F4A6CF883C09F4A3CF883B09F07DCF49
:102AE000E0919C0681E08E0F80939C06F0E0E55813
:102AF000F94F80818093BB0090919C0680919B064A
:102B000029C0809110078093BB0085EC8093BC00A6
:102B100064CF9091320780913107981758F5E09172
:102B2000320781E08E0F80933207F0E0EF5EF84FBE
:102B30008081E9CFE091320781E08E0F80933207E8
:102B40008091BB00F0E0EF5EF84F808390913207F8
:102B5000809131079817C8F285E8D8CFE091320705
:102B600081E08E0F809332078091BB00F0E0EF5E32
:102B7000F84F80838091340781115CCF81E080938E
:102B80000F0784EA8093BC001092350726CF85ECAE
:102B90008093BC00109235078091BD06803230F4DE
:102BA000E091BD06F0E0E356F94F10826091BD065A
:102BB00070E0E091BE06F091BF068DE996E00995C0
:102BC0001092BD060ACF1092330734CFE1E7F7E049
:102BD0001382128288EE93E0A0E0B0E084839583B4
:102BE000A683B78388E495E091838083EDE7F7E0DF
:102BF0001382128220E830E03583248380E490E061
:102C0000978386833187208793878287158A1586E5
:102C100014861786168681E0848B2FEF3FEF338B67
:102C2000228B318B208B868B178A118E108E8AE532
:102C300095E0918380838FEF848F80A3868F858F2B
:102C400084E0878F0895CF93DF93CDB7DEB7C8595F
:102C5000D1090FB6F894DEBF0FBECDBF789484B50E
:102C6000826084BD84B5816084BD85B5826085BD88
:102C700085B5816085BD80916E00816080936E0016
:102C80001092810080918100826080938100809108
:102C900081008160809381008091800081608093B9
:102CA00080008091B10084608093B1008091B00079
:102CB00081608093B00080917A00846080937A0074
:102CC00080917A00826080937A0080917A0081609E
:102CD00080937A0080917A00806880937A001092C5
:102CE000C1001092C4061092C30610923C071092C5
:102CF0005E070E94B80E89E396E09093C106809328
:102D0000C0068AE396E09093BF068093BE0682E0F9
:102D1000809398078CE380939707809199078F3F62
:102D200009F463C261E080919B070E94760461E030
:102D300080919D070E94760480919D07082E000CCB
:102D4000990BFC01E15EF84FE491F0E0EE0FFF1FFC
:102D5000EB5EF84F259134913093A4072093A3079D
:102D6000FC01EF5FF84FE491E093A90780919B0786
:102D7000082E000C990BFC01E15EF84FE491F0E0A5
:102D8000EE0FFF1FEB5EF84F259134913093A607AD
:102D90002093A507FC01EF5FF84FE491E093AA07A9
:102DA00080919E0781113EC061E0809199070E9449
:102DB000760461E080919A070E94760480919A07D8
:102DC000082E000C990BFC01E15EF84FE491F0E055
:102DD000EE0FFF1FEB5EF84F259134913093A20761
:102DE0002093A107FC01EF5FF84FE491E093A8075F
:102DF00080919907082E000C990BFC01E15EF84FB9
:102E0000E491F0E0EE0FFF1FEB5EF84F2591349157
:102E10003093A00720939F07FC01EF5FF84FE491E8
:102E2000E093A70780919E07882309F439C01FB754
:102E3000F8948091C206811127C0E9E2F7E08491FD
:102E4000EBE0F7E09491E82FF0E0EE0FFF1FE75280
:102E5000F94FA591B491EC91E92321F461E08AE066
:102E60000E94480461E08AE00E9476048CB580618B
:102E70008CBD8CB580648CBD61E08DE00E947604D1
:102E800061E08BE00E9476048091C2068F5F8093A0
:102E9000C2061FBF8CB58C7F8CBD8DB581608DBD8A
:102EA00061E080919C070E94760461E080919C071C
:102EB0000E94480461E070E080E090E00E94070614
:102EC00060E080919C070E9448046AE070E080E026
:102ED00090E00E94070661E080919C070E944804F0
:102EE0008EEA0E94641085ED0E94641080E80E94C2
:102EF000641088EA0E9464108FE30E94641083EDDE
:102F00000E94641080E00E94641080E40E946410BB
:102F10008DE80E94641084E10E94641080E20E94A7
:102F2000641080E00E94641081EA0E94641088ECC2
:102F30000E9464108AED0E94641082E10E94641075
:102F400081E80E9464108FEC0E94641089ED0E9459
:102F5000641081EF0E9464108BED0E94641080E485
:102F60000E94641084EA0E94641086EA0E94641041
:102F70008FEA0E9464100E947E1210928A071092BB
:102F8000890710928C0710928B0710925F0781E0DF
:102F90008093910781E090E09093900780938F0752
:102FA00090938E0780938D0784E795E00E946012CE
:102FB00081E895E00E94601288E995E00E94601225
:102FC0000E94B81064EF71E080E090E00E94070674
:102FD00084E795E00E9460128BEA95E00E946012FF
:102FE0000E94B81068EE73E080E090E00E9407064F
:102FF00061E08BE00E94760461E08CE00E94760440
:1030000060E083E00E94760460E084E00E94760441
:1030100060E085E00E94760460E086E00E9476042D
:1030200090E080E00E94792D8093FA0681E090E0A4
:103030000E94792D8058990B90930F0180930E0177
:103040000E9456110E94481161E08CE00E944804E1
:103050006AEF70E080E090E00E94070660E08CE09C
:103060000E944804209176062F962FAF2F978091CB
:10307000770660968FAF60979091780661969FAFC4
:103080006197DE011196BBAFAAAF809118059091B0
:103090001905A0911A05B0911B05E5968CAF9DAF5F
:1030A000AEAFBFAFE597CA56DF4F2883C659D040B1
:1030B00060969FAD6097C956DF4F9883C759D0403F
:1030C0006196AFAD6197C856DF4FA883C859D0400D
:1030D0001E01BBE22B0E311CFE01F396FDAFECAFDF
:1030E000809105078111A0C181E080933B0788E6AC
:1030F00080935D0710923C0710925E0760E081E7C5
:1031000097E00E9435100E94F70E0E94E2056B01C5
:103110007C018091350781116BC081E08093350778
:10312000809334079FEF909333071092320796E015
:10313000909331078093100780911007806D8093E2
:10314000100780910F07813011F00C948A2810929B
:103150000F070E94E2056B017C01809110078093AC
:10316000BB008091370790913807A0913907B09143
:103170003A07892B8A2B8B2BA1F00E94E205009144
:103180003707109138072091390730913A076C19A9
:103190007D098E099F09061717072807390708F4C4
:1031A00048C08091BC0083FDD8CF85EC8093BC00E3
:1031B0000E94E2056B017C0180913507813011F49A
:1031C0000C948D2880913207873010F00C94B2282F
:1031D00080913207E1E1F7E0A5ECB6E090E09817C6
:1031E00069F121912D939F5FFACF0E94B80E58CEBE
:1031F0008091370790913807A0913907B0913A072D
:10320000892B8A2B8B2B09F484CF0E94E205009135
:103210003707109138072091390730913A076C1918
:103220007D098E099F09061717072807390708F037
:1032300070CF809136070E94D60E80E01092C406AF
:103240008093C30681E797E00E94EE0F982F929536
:1032500097702AE0B22E8F70C82E9B9DC00C11244F
:10326000C092F30681E797E00E94EE0F982F9295A7
:103270009F708F70182F9B9D100D11241093F206D4
:1032800081E797E00E94EE0F982F929593708F70D0
:10329000082F9B9D000D11240093F10681E797E014
:1032A0000E94EE0F982F92959F708F70F82E9B9D25
:1032B000F00C1124F092ED0681E797E00E94EE0FEA
:1032C000982F92959F708F70E82E9B9DE00C112493
:1032D000E092EF0681E797E00E94EE0F982F92951B
:1032E0009F708F70D82E9B9DD00C1124D092F00629
:1032F00081E797E00E94EE0F982F92959F708F7054
:103300009B9D800D11248093EE06C092F4061093CD
:10331000F8060093FB06D0920007E092010790E0C8
:103320008053984F9093FF068093FE06F0920D0114
:1033300040910E0150910F016091FA06802F0E947A
:10334000C611082F8093F9068091F706882361F053
:1033500080910C01801308C080910B01811304C07F
:103360000E94B0111092F7068091F606882361F052
:1033700080910A01801308C080910901811304C063
:103380000E94B0111092F6068091EC06882361F03D
:1033900080910701801308C080910601811304C049
:1033A0000E9467111092EC068091EB06882361F071
:1033B00080910501801308C080910401811304C02D
:1033C0000E9467111092EB068091EA06882361F053
:1033D00080910301801308C080910201811304C011
:1033E0000E9467111092EA068091E906882361F035
:1033F00080910101801308C080910001811304C0F5
:103400000E9467111092E90680910801882361F0FB
:1034100011110C94BA2B8091E506811105C00E9410
:10342000561181E08093E506809110018823A1F177
:103430008091E806882311F40C94B5289091F80641
:103440008091E706981306C01092E8068091E60680
:103450008093080180910407882319F10E94481184
:1034600083E00E941F04019711F00C94DA28109257
:10347000040781E08093E8068091E60680930801C6
:103480008091F80690E001966BE370E00E94703145
:103490008093E706109203078091040781110C9432
:1034A000EF2883E00E941F04813009F097C09091BB
:1034B00003072091FC06222311F40C94FF2891119C
:1034C0000C94FF28A090F406A092F306B090F806A2
:1034D000B092F206C090FB06C092F106F090000791
:1034E000F092F006E0900107E092EF060091FE06F0
:1034F000005D0093EE06D0900D01D092ED06809312
:103500003B0788E680935D0710923C0710925E07A8
:1035100060E081E797E00E9435101AE08A2D612F64
:103520000E9464318295807F682F690F81E797E060
:103530000E9435108B2D612F0E9464318295807F0F
:10354000682F690F81E797E00E9435108C2D612F5D
:103550000E9464318295807F682F690F81E797E030
:103560000E9435108D2D612F0E9464318295807FDD
:10357000682F690F81E797E00E9435108E2D612F2B
:103580000E9464318295807F682F690F81E797E000
:103590000E9435108F2D612F0E9464318295807FAB
:1035A000682F690F81E797E00E943510802F612F07
:1035B0000E9464318295807F682F690F81E797E0D0
:1035C0000E9435100E94F70E68EE73E080E090E0F4
:1035D0000E940706109205071092FC0684E00E94E4
:1035E0001F0410910307813049F4123010F013309A
:1035F00029F48091FC068F5F8093FC0685E00E9491
:103600001F04813051F411110C9455299091FC063E
:1036100091110C9404298093FD0686E00E941F04FA
:10362000813069F48091030781110C94442C8091BE
:10363000FC0681110C94CC2982E08093FD068091D8
:10364000030781110C94472C8091FC06882339F0E4
:1036500081E0809305078091030781113EC26CEBE6
:1036600075E0CE0101960E94A0136FEB75E0CE01CC
:1036700007960E94A01362EC75E0CE010D960E94A1
:10368000A01365EC75E0CE0143960E94A01368EC90
:1036900075E0CE0149960E94A0136BEC75E0CE0157
:1036A0004F960E94A0136EEC75E0CE0185960E94A5
:1036B000A013E5968CAD9DADAEADBFADE5978BABE0
:1036C0009CABADABBEAB8091F9061F928F9301ED21
:1036D00015E01F930F939DAD9F93ACADAF930E94E8
:1036E000D633E5968CAD9DADAEADBFADE5978FA75A
:1036F00098ABA9ABBAAB8091FB061F928F931F9337
:103700000F937E019FE2E90EF11CFF92EF920E945F
:10371000D633CA56DF4FA881C659D040AFABC95681
:10372000DF4FB881C759D040B8AFC856DF4FE881E6
:10373000C859D040E9AF8091F8061F928F9388ED69
:1037400095E09F938F936E01F7E3CF0ED11CDF922C
:10375000CF920E94D633E5968CAD9DADAEADBFAD98
:10376000E5978BA79CA7ADA7BEA78091F4061F92F3
:103770008F9387ED95E09F938F933F922F920E94B6
:10378000D6330E947E1210928A07109289071092F7
:103790008C0710928B07BB24B394B092910701E081
:1037A00010E01093900700938F0710938E070093FB
:1037B0008D0783ED96E00E94FA0CC7010E946E12FD
:1037C000C6010E946E12B092910710939007009369
:1037D0008F0710938E0700938D078EEC96E00E9462
:1037E000FA0C0FB6F894DEBF0FBECDBF8091F7067E
:1037F000811104C08091F606882321F089EC96E0BF
:103800000E94FA0C80910801882321F085EC96E053
:103810000E94FA0C2091850730918607EE24E394EC
:10382000F12C0DE010E04DE050E070E060E08DE73D
:1038300097E00E94E30D60918507709186076150C3
:1038400071099B0150E040E08DE797E00E94E30D95
:10385000609185077091860777FF02C06F5F7F4F89
:1038600075956795EE24E394F12C0DE010E09B0133
:1038700050E040E08DE797E00E94E30D85E090E0A6
:1038800090938A07809389078CE190E090938C074E
:1038900080938B0781E0809391078091FA068130B5
:1038A00021F481EC96E00E94FA0C83E190E0909381
:1038B0008A078093890787E190E090938C07809333
:1038C0008B0782E08093910787EE95E00E946E124D
:1038D0008091FC06813021F48DED95E00E946E12FE
:1038E000CE01C3960E946E128091FC06823021F4B4
:1038F0008DED95E00E946E12C6010E946E128091BD
:10390000FC068150823090F08CE590E090938A071D
:10391000809389078DE190E090938C0780938B07CB
:1039200081E080939107C1010E9460122091850778
:1039300030918607EE24E394F12C01E310E041E39B
:1039400050E070E060E08DE797E00E94E30D109298
:103950008A071092890788E390E090938C07809300
:103960008B0781E0809391078091FC06833021F4DE
:103970008DED95E00E946E1280910D01E1E0F0E086
:10398000EC0FFD1FB6E08B9FE00DF11D112444816B
:103990005581608171818DE797E00E94670687EE0F
:1039A00095E00E946E128091FC06843021F48DED2A
:1039B00095E00E946E12809101070E9489128FED9E
:1039C00095E00E946E128091FC06853021F48DED09
:1039D00095E00E946E12809100070E9489128FED7F
:1039E00095E00E946E128091FC06863021F48DEDE8
:1039F00095E00E946E128091FE069091FF060E9453
:103A00006C13609185077091860761507109EE24EF
:103A1000E394F12C00E410E09B0141E350E08DE7DA
:103A200097E00E94E30D8091850790918607F3E06F
:103A3000CF2ED12CB6010E94703162507109660FF1
:103A4000771F9B0141E350E08DE797E00E94E30D73
:103A50008091850790918607B6010E9470316F5F53
:103A60007F4F660F771F70938A076093890788E3FB
:103A700090E090938C0780938B0781E0809391076F
:103A800080911001882321F08DEB96E00E94FA0CC2
:103A90008091EC0681110CC08091EB06811108C069
:103AA0008091EA06811104C08091E906882321F003
:103AB00089EB96E00E94FA0C0E94B8108101065032
:103AC0001109F80180819181009711F00E947B32E9
:103AD0008AAD9BAD8017910791F7109103071130C4
:103AE00009F01BC20E947E1210928A071092890769
:103AF00010928C0710928B071093910781E090E051
:103B00009093900780938F0790938E0780938D07F3
:103B100081EE95E00E94601283E190E090938A0725
:103B20008093890785E090E090938C0780938B07C2
:103B300082E0809391072F969FAD2F979BA7609669
:103B4000AFAD6097ACA76196BFAD6197BDA78091FF
:103B50000C011F928F9308ED15E01F930F933F9276
:103B60002F920E94D6332F96EFAD2F97E983609660
:103B7000FFAD6097FA8361962FAD61972B8380919B
:103B80000B011F928F931F930F9381E090E08C0F96
:103B90009D1F9F938F930E94D63387EE95E00E94DE
:103BA0006E120FB6F894DEBF0FBECDBF8091FC063B
:103BB000813021F48DED95E00E946E12C1010E94CA
:103BC0006E1287EB96E00E94FA0C8091FC06823020
:103BD00021F48DED95E00E946E12CE0101960E94B7
:103BE0006E128CE590E090938A078093890788E0B5
:103BF00090E090938C0780938B0781E080939107EE
:103C000086EE95E00E946E128091FC06833021F4CE
:103C10008DED95E00E946E128091F706882311F4D5
:103C20000C94392A84EB96E00E947012209185074B
:103C300030918607EE24E394F12C05E110E045E194
:103C400050E070E060E08DE797E00E94E30D109295
:103C50008A07109289078AE190E090938C078093FD
:103C60008B0781E08093910781E090E0909390072B
:103C700080938F0790938E0780938D0789EE95E050
:103C80000E94601283E190E090938A0780938907F5
:103C90008FE190E090938C0780938B0782E0809374
:103CA00091072F96BFAD2F97BBA76096EFAD60979A
:103CB000ECA76196FFAD6197FDA780910A011F9265
:103CC0008F9308ED15E01F930F933F922F920E9460
:103CD000D6332F962FAD2F97298360968FAD60979F
:103CE0008A8361969FAD61979B83809109011F92A2
:103CF0008F931F930F93A1E0B0E0AC0FBD1FBF9354
:103D0000AF930E94D63387EE95E00E946E120FB6F5
:103D1000F894DEBF0FBECDBF8091FC06843021F445
:103D20008EEA96E00E94FA0CC1010E946E128CEAA3
:103D300096E00E94FA0C8091FC06853021F48DED0E
:103D400095E00E946E12CE0101960E946E128CE5E3
:103D500090E090938A078093890783E290E09093A4
:103D60008C0780938B0781E08093910786EE95E026
:103D70000E946E128091FC06863021F48DED95E054
:103D80000E946E128091F606882311F40C943D2A4D
:103D900089EA96E00E94701220918507309186078B
:103DA000EE24E394F12C02E310E042E350E070E0F3
:103DB00060E08DE797E00E94E30D609185077091C8
:103DC000860777FF02C06F5F7F4F75956795EE247A
:103DD000E394F12C00E410E09B0142E350E08DE716
:103DE00097E00E94E30D809185079091860797FDEB
:103DF000019695958795089690938A0780938907F1
:103E000008E3C02ED12CD0928C07C0928B0781E0A2
:103E1000809391072F96FFAD2F97FFA760962FAD48
:103E2000609728AB61968FAD619789AB8091F90659
:103E30001F928F9308ED15E01F930F937E019FE271
:103E4000E90EF11CFF92EF920E94D6332F96AFAD90
:103E50002F97ABA76096BFAD6097BCA76196EFADFB
:103E60006197EDA78091F8061F928F931F930F9390
:103E70003F922F920E94D6332F96FFAD2F97F98352
:103E800060962FAD60972A8361968FAD61978B8383
:103E90008091F4061F928F931F930F93A1E0B0E0DF
:103EA000AC0FBD1FBF93AF930E94D633C7010E94D2
:103EB0006E1285ED95E00E946E12C1010E946E1295
:103EC0008EE696E00E946E12CE0101960E946E125E
:103ED00010928A0710928907D0928C07C0928B07A4
:103EE0008EE996E00E94FA0C0FB6F894DEBF0FBE82
:103EF000CDBF8091FC06873021F48DED95E00E94C6
:103F00006E1280910801882311F40C94412A8BE9E8
:103F100096E00E9470120E94B810809103078230D0
:103F200009F01FC180910207811118C10091FE069E
:103F30001091FF066091010770E080910007A801D1
:103F400090E00E94D2119C01C8018C56974063E119
:103F500070E00E947031FC0131964BE04E9FC00131
:103F60004F9F900D112442966EE170E00E947031D7
:103F7000AC018931910511F00C94452A3C9714F05D
:103F80000C944A2A240F351F46E0429FC001439FEC
:103F9000900D11240B9661EB70E00E94703166E188
:103FA00070E00E9470316B01F7E0CF22DD240E94A7
:103FB0007E1210928A071092890710928C07109235
:103FC0008B07AA24A394A092910781E090E090939C
:103FD000900780938F0790938E0780938D0788E8D2
:103FE00096E00E94FA0C8EEE95E00E946E128C2DE7
:103FF000880F880F0E94891283EF95E00E9460125B
:104000002091850730918607EE24E394F12C0FE090
:1040100010E04FE050E070E060E08DE797E00E9434
:10402000E30D85E090E090938A078093890789E10A
:1040300090E090938C0780938B07A09291078FEF6D
:104040008C0D833010F00C944F2A86E796E00E9486
:10405000FA0CABE1BA2E6BEF6C0D633030F484E4F4
:1040600096E00E94FA0CEAE0BE2E10928A071092A7
:1040700089078EE290E090938C0780938B0781E014
:104080008093910786EE95E00E946E128091010761
:104090000E9489128FED95E00E946E1280910007B8
:1040A0000E9489128FED95E00E946E128091FE06AB
:1040B0009091FF060E946C13D12CC12CE0908507D3
:1040C000F0908607F7FE03C08FEFE81AF80AF59420
:1040D000E79493E2E90EF11C01E010E025E130E005
:1040E00046E250E0B7018DE797E00E94940641E078
:1040F00050E06AE070E0C7010E94F107E090850798
:10410000F0908607F7FE03C0AFEFEA1AFA0AF594BB
:10411000E794B6E3EB0EF11CEC18FD0810E000E0AC
:1041200021E130E048E250E0B7018DE797E00E94DE
:10413000940650E040E068E070E0C7010E94F1079B
:1041400064E670E080E090E00E9407060E94B810EC
:10415000EFEFCE1ADE0ABC1408F0B0CF81E08093F6
:10416000020780910307833009F0A1C00E947E12EC
:1041700010928A071092890710928C0710928B0771
:1041800010925F0781E08093910781E090E0909327
:10419000900780938F0790938E0780938D0785EF0C
:1041A00095E00E9460120E94C50384E795E00E949A
:1041B00060120E94C50387E096E00E946E12809113
:1041C000FC06813021F48DED95E00E946E12809105
:1041D000F5060E94891282E795E00E940F128091F5
:1041E0005F0790E00A9610928A07109289079093D1
:1041F0008C0780938B0783E196E00E946E1280917A
:10420000FC06823021F48DED95E00E946E128091C3
:10421000FA06813011F00C94632A81E496E00E9442
:1042200070120E94C50380915F0790E00C96109277
:104230008A071092890790938C0780938B0789E1F6
:1042400096E00E946E128091FC06833021F48DED81
:1042500095E00E946E1280910E0190910F010E94D4
:104260006C130E94C50380915F0790E00E96109238
:104270008A071092890790938C0780938B0784E2BA
:1042800096E00E946E128091FC06843021F48DED40
:1042900095E00E946E1280911001882311F40C9415
:1042A000672A8AE396E00E9470120E94B8108091FB
:1042B000FD06882311F40C94B52B8091F506882314
:1042C00011F40C946B2A813011F40C94B72A69967E
:1042D0001CAE1DAE1EAE1FAE699765961CAE1DAE20
:1042E0001EAE1FAE659722961CAE1DAE1EAE1FAE53
:1042F0002297C12CD12C76016D96CCAEDDAEEEAE00
:10430000FFAE6D974601570126013701A8964CAEC6
:104310005DAE6EAE7FAEA8970E947E1210928A07A5
:104320001092890710928C0710928B0710925F07EA
:1043300081E08093910781E090E0909390078093D3
:104340008F0790938E0780938D0781E396E00E94FC
:104350006E128091F5060E94891286E396E00E9413
:1043600060120E94C50380915F0790E00296109250
:104370008A071092890790938C0780938B0780910E
:10438000FD06823011F00C94FC2A82E496E00E9433
:1043900060120E94C50380915F0790E0039610921F
:1043A0008A071092890790938C0780938B070E944D
:1043B000B8108091F9068150990B2CE3289FB00129
:1043C000299F700D1124072E000C880B990B0E9459
:1043D0005C2CA2966FAFA297A3967FAFA397A496EB
:1043E0008FAFA497092F4091FE065091FF06609170
:1043F000010770E08091000790E00E94D211BC019B
:10440000990F880B990B0E945C2CC258DF4F688370
:1044100079838A839B83CE57D04020EE3EE245E6E7
:1044200052E4C301B2010E94812E2B013C0120EE17
:104430003EE245E652E4C501B4010E94812ECE570A
:10444000DF4F688379838A839B83C258D04020EEF4
:104450003EE245E652E4C701B6010E94812ECA57EA
:10446000DF4F688379838A839B83C658D04020EED0
:104470003EE245E652E422966CAD7DAD8EAD9FAD39
:1044800022970E94812EC657DF4F688379838A83E3
:104490009B83CA58D0402BED3FE049EC50E4659631
:1044A0006CAD7DAD8EAD9FAD65970E94BB2C6596C2
:1044B0006CAF7DAF8EAF9FAF65972BED3FE049ECC2
:1044C00050E469966CAD7DAD8EAD9FAD69970E944D
:1044D000BB2CC257DF4F688379838A839B83CE5876
:1044E000D0402BED3FE049EC50E465966CAD7DADDE
:1044F0008EAD9FAD65970E94812E2BEA3AEA4AE283
:104500005FE30E949C2F9B01AC0160E07CEE84E2A3
:1045100097E40E94812EED966CAF7DAF8EAF9FAF7A
:10452000ED97C301B2010E94EC2FCE56DF4F688396
:1045300079838A839B83C259D040C301B2010E9410
:104540007C2E69966CAF7DAF8EAF9FAF6997E69674
:104550001FAEE697E7961FAEE797E8961FAEE8977F
:10456000E9961FAEE997AE961FAEAE97AF961FAE17
:10457000AF97E0961FAEE097E1961FAEE197AA963F
:104580001FAEAA97AB961FAEAB9798ECAC969FAFB9
:10459000AC97A2ECAD96AFAFAD97B1E0A996BFAF27
:1045A000A99710E020E030EE43EB54E4A2966FAD03
:1045B000A297A3967FADA397A4968FADA497902FB3
:1045C0000E94552C181614F40C94A32BA8962CAD0D
:1045D0003DAD4EAD5FADA897C258DF4F6881798180
:1045E0008A819B81CE57D0400E94E02D6B017C01D7
:1045F00020E030E044EB54E4A2966FADA297A3967E
:104600007FADA397A4968FADA497902F0E94812E83
:104610009B01AC01C701B6010E94E12D22966CAF4F
:104620007DAF8EAF9FAF229720E030E040EC50E4AA
:104630000E94812EC257DF4F288139814A815B81D8
:10464000CE58D0400E94BB2C65962CAD3DAD4EADF2
:104650005FAD65970E94812E26966CAF7DAF8EAFC1
:104660009FAF269720E030E040E450E40E94BB2C4E
:1046700020E030E040E85FE30E94E12D6B017C0127
:1046800022962CAD3DAD4EAD5FAD229765966CADDB
:104690007DAD8EAD9FAD65970E94BB2C9B01AC019B
:1046A000C701B6010E94BB2CC657DF4F2881398154
:1046B0004A815B81CA58D0400E94E12D2B013C0108
:1046C0004B015C01B401C5010E94EC2F2E966CAF2A
:1046D0007DAF8EAF9FAF2E97B401C5010E947C2E97
:1046E0002A966CAF7DAF8EAF9FAF2A972E962CADDA
:1046F0003DAD4EAD5FAD2E976D966CAD7DAD8EAD83
:104700009FAD6D970E94BB2C9B01AC01B401C5010C
:104710000E94E02D9201A3010E94E02D6B017C011B
:104720002A962CAD3DAD4EAD5FAD2A976D966CAD22
:104730007DAD8EAD9FAD6D970E94BB2C9B01AC01F2
:1047400060E070E080E89FE30E94E02D9B01AC01F7
:10475000C701B6010E94812E6B017C01AC019B0157
:10476000B401C5010E94E02D4B015C0183E00E9471
:104770001F04813009F4E7C7C701B6019F7727E11D
:1047800037EB41ED58E30E948F2F18160CF49ACFA7
:1047900020E030E040E850E426966CAD7DAD8EAD73
:1047A0009FAD26970E94BB2C9B01AC0160E070E09E
:1047B00080E89FE30E94E02DED962CAD3DAD4EAD1F
:1047C0005FADED970E94BB2C2B013C016D962CAD8B
:1047D0003DAD4EAD5FAD6D97CA01B9010E94BB2CD6
:1047E0009B01AC0160E070E080E89FE30E94E02D57
:1047F0006B017C01AC019B01ED966CAD7DAD8EAD86
:104800009FADED970E94BB2C4B015C0126E937E080
:1048100041E857E465966CAD7DAD8EAD9FAD659773
:104820000E94BB2CA1966CAF7DAF8EAF9FAFA197BE
:10483000A5019401C501B4010E94BB2C9B01AC01F0
:10484000A1966CAD7DAD8EAD9FADA1970E94812EDE
:104850004B015C0120E030E040EE50E426966CAD68
:104860007DAD8EAD9FAD26970E94BB2C20E030E041
:1048700040E85FE30E94E12D9B01AC01C501B4015A
:104880000E94BB2C26966CAF7DAF8EAF9FAF269754
:104890006D962CAD3DAD4EAD5FAD6D972A966CAD6E
:1048A0007DAD8EAD9FAD2A970E94E02DA3019201B0
:1048B0000E94BB2C2A966CAF7DAF8EAF9FAF2A971C
:1048C000C701B6010E94FA2F6B017C012E962CAD18
:1048D0003DAD4EAD5FAD2E97C301B2010E94BB2C22
:1048E000A70196010E94BB2C2B013C0120E030E087
:1048F00040EA50E469966CAD7DAD8EAD9FAD699791
:104900000E94BB2C69962CAD3DAD4EAD5FAD699755
:104910000E94BB2C20E030E040E85FE30E94E02DE5
:104920006B017C0126962CAD3DAD4EAD5FAD26975B
:1049300022966CAD7DAD8EAD9FAD22970E94BB2CB3
:104940009B01AC01C701B6010E94BB2C20E030E006
:1049500040E05FE30E94BB2CCA57DF4F28813981BA
:104960004A815B81C658D0400E94E12D6B017C01D9
:104970000E94EC2F4B015C01C701B6010E947C2E06
:104980006B017C01AC019B012A966CAD7DAD8EADB7
:104990009FAD2A970E94BB2C2E966CAF7DAF8EAF39
:1049A0009FAF2E97A5019401C301B2010E94BB2CB9
:1049B0009B01AC012E966CAD7DAD8EAD9FAD2E975B
:1049C0000E94E02DA1966CAF7DAF8EAF9FAFA197F7
:1049D000A50194012A966CAD7DAD8EAD9FAD2A9751
:1049E0000E94BB2C4B015C01A7019601C301B201DF
:1049F0000E94BB2C9B01AC01C501B4010E94E12DBA
:104A00002B013C01AC019B0169966CAD7DAD8EAD77
:104A10009FAD69970E94BB2C2A966CAF7DAF8EAF7D
:104A20009FAF2A972CE33AED4CED5FE3CE57DF4F73
:104A3000688179818A819B81C258D0400E94E02D93
:104A40006B017C0122962CAD3DAD4EAD5FAD229742
:104A5000A8966CAD7DAD8EAD9FADA8970E94E12D5F
:104A600027EC3CE949EC50E40E94BB2C9B01AC01D3
:104A7000C701B6010E94E02D6B017C0122962CAD8E
:104A80003DAD4EAD5FAD229769966CAD7DAD8EADFF
:104A90009FAD69970E94BB2C26962CAD3DAD4EADC7
:104AA0005FAD26970E94BB2C9B01AC01C701B601EC
:104AB0000E94E02D4B015C010E94EC2F6B017C01F8
:104AC000C501B4010E947C2E4B015C01A30192013F
:104AD000CE56DF4F688179818A819B81C259D0404F
:104AE0000E94BB2C2CE03CE141E855E40E94E02D03
:104AF0002E966CAF7DAF8EAF9FAF2E97A70196011C
:104B0000A1966CAD7DAD8EAD9FADA1970E94BB2CE3
:104B10002B013C01A50194012A966CAD7DAD8EADB3
:104B20009FAD2A970E94BB2C9B01AC01C301B2012F
:104B30000E94E12D2DEA34E34CE954E40E94E02D7B
:104B400022966CAF7DAF8EAF9FAF2297A5019401E7
:104B5000A1966CAD7DAD8EAD9FADA1970E94BB2C93
:104B60004B015C01A70196012A966CAD7DAD8EAD1F
:104B70009FAD2A970E94BB2C9B01AC01C501B401DB
:104B80000E94E02D2BEB38E442E955E40E94E02D31
:104B900026966CAF7DAF8EAF9FAF269725E93EE09E
:104BA00044E85EE30E94BB2C6B017C012BE936E5F7
:104BB00047E75FE322966CAD7DAD8EAD9FAD22974A
:104BC0000E94BB2C9B01AC01C701B6010E94E02DE5
:104BD0002B013C012FE830EC46E25FE326966CADFA
:104BE0007DAD8EAD9FAD26970E94BB2C2BE936E59F
:104BF00047E75FE30E94BB2C6B017C012FE830ECA0
:104C000046E25FE322966CAD7DAD8EAD9FAD2297FF
:104C10000E94BB2C25E93EE044E85EE30E94BB2CE9
:104C20009B01AC01C701B6010E94E12D6B017C0123
:104C30002BEC3DE342E45FE32E966CAD7DAD8EAD93
:104C40009FAD2E970E94BB2C9B01AC01C701B60102
:104C50000E94E02D4B015C01AC019B01C301B2013C
:104C60000E94812E0E944D2E20EE3EE245E652E447
:104C70000E94BB2C6B017C0120E030E0A901C50142
:104C8000B4010E948F2F181654F420E030E044E362
:104C900053E4C701B6010E94E02D6B017C0120E0C6
:104CA00030E0A901C701B6010E948F2F18160CF041
:104CB000B3C4A701960160E070E084EB93E40E9426
:104CC000E02D20E030E0A9010E94552C87FF0AC0AA
:104CD00020E030E044EB53E4C701B6010E94E02D30
:104CE0006B017C01A3019201C301B2010E94BB2CA4
:104CF0002B013C01A5019401C501B4010E94BB2C0C
:104D00009B01AC01C301B2010E94E12D0E94FA2F68
:104D10004B015C012BEC3DE342E45FE326966CAD76
:104D20007DAD8EAD9FAD26970E94BB2C2BE936E55D
:104D300047E75FE30E94BB2C2B013C012BEC3DE3DA
:104D400042E45FE322966CAD7DAD8EAD9FAD2297C0
:104D50000E94BB2C25E93EE044E85EE30E94BB2CA8
:104D60009B01AC01C301B2010E94E12D2B013C016A
:104D70002FE830EC46E25FE32E966CAD7DAD8EAD54
:104D80009FAD2E970E94BB2C9B01AC01C301B201C9
:104D90000E94E12DA50194010E94812E0E944D2EBA
:104DA00020EE3EE245E652E40E94BB2C2B013C0182
:104DB00020E030E040E251EC0E94552C87FD99C480
:104DC00020E030E040E05FE3C701B6010E94E12D42
:104DD0004B015C0120E030E0A9010E948F2F1816E2
:104DE00024F0B7FAB094B7F8B09420E030E040E097
:104DF0005FE3C301B2010E94E12D0E94F32E072E52
:104E0000000C880B990B0E945C2C6EAF23967FAF31
:104E100023972B968FAF2B9727969FAF279720E04E
:104E200030E040E752E4A2966FADA297A3967FAD23
:104E3000A397A4968FADA497902F0E94812E6B010B
:104E40007C010E94F32E072E000C880B990B0E9408
:104E50005C2C2DEC3CEC4CEC5EE30E94BB2C2B015B
:104E60003C012AE939E949E15FE3C701B6010E9443
:104E7000BB2C9B01AC01C301B2010E94E12D6E96D7
:104E80006FAF6E97472E582EEE969FAFEE976090BD
:104E9000FD06E1E06E12AAC0A996FFADA997F11137
:104EA000E5C3AA962FADAA97AB963FADAB97AC964C
:104EB0004FADAC97AD965FADAD976EAD23967FAD20
:104EC00023972B968FAD2B9727969FAD27970E9400
:104ED0008F2F18160CF4CFC380915F0790E00396D4
:104EE00010928A071092890790938C0780938B0702
:104EF00087EE95E00E946E1242E0AE966FADAE97DF
:104F0000AF967FADAF97E0968FADE097E1969FADFE
:104F1000E1970E94901287EE95E00E946E1242E0A7
:104F2000AA966FADAA97AB967FADAB97AC968FADB7
:104F3000AC97AD969FADAD970E94901282E795E039
:104F40000E940F120E94C50320E030E040E752E4C7
:104F5000E6966FADE697E7967FADE797E8968FAD5B
:104F6000E897E9969FADE9970E94812E0E94F32E63
:104F70006B0140910E0150910F016091FA068C2D4A
:104F80000E94C611782EDD24B601DD0C880B990B2A
:104F90000E945C2C9B01AC01AE966FADAE97AF96B4
:104FA0007FADAF97E0968FADE097E1969FADE1972B
:104FB0000E94E02D20E030E048EC52E40E94BB2C3F
:104FC0000E94F32E8091EC0681112FC3709207018D
:104FD000609306016092EC060E94B8101F5F1430C7
:104FE00009F4B1C321E0A9962FAFA9978091FD06DE
:104FF000823009F06EC080915F0790E003961092B6
:105000008A071092890790938C0780938B0787EE0D
:1050100095E00E946E1242E06E966FAD6E97742D11
:10502000852DEE969FADEE970E94901287EE95E04B
:105030000E946E1242E0C501B4010E94901287EEF8
:1050400095E00E946E1242E06EAD23967FAD2397ED
:105050002B968FAD2B9727969FAD27970E94901286
:1050600082E795E00E940F120E94C5030E94B810CB
:105070001F5F143071F568E873E180E090E00E94F2
:1050800007060E947E1210928A07109289071092DA
:105090008C0710928B0710925F07B1E0B0939107D5
:1050A000E1E0F0E0F0939007E0938F07F0938E0734
:1050B000E0938D0784E696E00E9460120E94C5038B
:1050C00084E795E00E9460120E94C5030E94B81018
:1050D00010E083E00E941F04813009F434C320E013
:1050E00030E040EA50E4A2966FADA297A3967FAD60
:1050F000A397A4968FADA497902F0E94E12DA2961E
:105100006FAFA297A3967FAFA397A4968FAFA497F4
:10511000092F48CA85EE0C94D618809137079091D4
:105120003807A0913907B0913A07892B8A2B8B2B2E
:1051300011F40C94DC180E94E205009137071091DD
:1051400038072091390730913A076C197D098E098B
:105150009F09061717072807390710F00C94DC1869
:105160000C94191987E00C94EA188091F90687507D
:105170008031E0F08091040781110C942A1A0E947A
:105180007E120E94B8101092EC061092EB0610925C
:10519000EA061092E906809108018093E6061092D3
:1051A000080181E0809304070C942A1A10920407E6
:1051B0000C942A1A84E00E941F04019711F40C94A5
:1051C000371A85E00E941F04019711F40C94371AD6
:1051D00086E00E941F04019711F40C94371A68EBC3
:1051E0007BE080E090E00E94070680E090E0892B61
:1051F00011F40C9470180E9400000C9468189F5FC2
:10520000909303070C94EC1A9130C1F48091FB0643
:105210008F5F883180F48093FB0640910E0150919E
:105220000F016091FA068091FB060E94C6118093DF
:10523000F9060C940D1B1092FB06EFCF923051F43F
:105240008091F8068F5F8C3308F498C21092F806AC
:105250000C940D1B933061F480910D0190E0019648
:1052600067E070E00E94703180930D010C940D1B7B
:10527000943009F087C2809101078F5F803208F473
:1052800098C2109201070C940D1B909100079F5F2C
:105290009D3020F4909300070C940D1B8093000721
:1052A0000C940D1B8EED97E07EC2113009F085C283
:1052B0008091FC06813051F480910C018F5F883120
:1052C00008F4B1C210920C010C940D1B823069F4E9
:1052D00080910B018F5F8C3320F480930B010C9431
:1052E0000D1B10920B010C940D1B833009F09FC213
:1052F0008091F706811104C01093F7060C940D1BE2
:105300001092F7060C940D1B80910A018F5F883173
:1053100020F480930A010C940D1B10920A010C9446
:105320000D1B809109018F5F8C3320F4809309015C
:105330000C940D1B109209010C940D1B8091F60624
:10534000811105C081E08093F6060C940D1B10922C
:10535000F6060C940D1B109208010C940D1B109274
:10536000F5063AC2923009F037C29091FA069111CF
:1053700009C08093FA066091FA0690E080E00E94EE
:10538000812D2AC21092FA06F6CF85EF9FEF31C227
:10539000109210010C940D1B8130B9F48091FB0622
:1053A000882389F081508093FB0640910E01509133
:1053B0000F016091FA068091FB060E94C61180934E
:1053C000F9060C941F1B87E1EECF823059F48091CF
:1053D000F806882329F081508093F8060C941F1B4F
:1053E0008BE3FACF833059F480910D01882329F0A3
:1053F000815080930D010C941F1B86E0FACF8430FE
:1054000009F02BC280910107882329F081508093F5
:1054100001070C941F1B8FE1FACF809100078823AE
:1054200029F08150809300070C941F1B8CE0FACF69
:105430008EED97E023C29091FC06933009F02BC2C9
:1054400080910E0190910F010197853FAFEF9A0770
:105450006CF090930F0180930E0160910E016058E3
:1054600081E090E00E94812D0C941F1B8CE090E065
:10547000F0CF80EB96E00C94141E85EA96E00C9435
:10548000CA1E87E996E00C94891F8831910511F0B6
:105490000C94C21FAC014F5F5F4F0C94C21F24E0FD
:1054A000C21207C085E696E00E94FA0CB12C0C945B
:1054B0002B20C110FBCF85E596E00E94FA0CF3E1AA
:1054C000BF2E0C942B208DE396E00C940F2186E3E5
:1054D00096E00C9453218EEF9FE9A1E0B9E3699621
:1054E0008CAF9DAFAEAFBFAF69978FE697E7A8E7E8
:1054F000B1E465968CAF9DAFAEAFBFAF65978BEE55
:105500009AE9ADE9B3E422968CAF9DAFAEAFBFAFE1
:1055100022973DE2C32E33E7D32E35E4E32E33E466
:10552000F32E89E39CEAAAE3BAE36D968CAF9DAFB4
:10553000AEAFBFAF6D974DE1842E49EE942E41E49E
:10554000A42E43E4B42E58E1452E55E9552E5EE4D1
:10555000652E52E4752E88E99EEFA3EFBFE3A8966F
:105560008CAF9DAFAEAFBFAFA8970C948C218AE5EE
:1055700098EDA2EBB7E369968CAF9DAFAEAFBFAF2E
:10558000699780E693EBACE6B1E465968CAF9DAF8E
:10559000AEAFBFAF659786E991EEA2E2B2E4229684
:1055A0008CAF9DAFAEAFBFAF229782EEC82E89E71A
:1055B000D82E8FE9E82E83E4F82E8DEC95EBA3EC42
:1055C000BBE36D968CAF9DAFAEAFBFAF6D9797E568
:1055D000892E9CEE992E9CE8A92E92E4B92E26EEF7
:1055E000422E21E8522E23EC622E22E4722E8CE908
:1055F0009DE7A8EDBFE3B3CF85E596E00E9460127A
:105600000E94C5031092EC061092EB061092EA0677
:105610001092E9060C94CB2120E030E044EB53E4F7
:10562000C701B6010E94E12D4CCB8091EB068111A0
:1056300007C070920501609304016092EB06CCCC28
:105640008091EA06811107C0709203016093020104
:105650006092EA06C1CC8091E9068111BDCC7092BE
:105660000101609300016092E906B6CC81E0A99641
:105670008FAFA997BBCCA2969FADA297E6969FAF9E
:10568000E697A396AFADA397E796AFAFE797A4963B
:10569000BFADA497E896BFAFE897E9960FAFE9973B
:1056A0006E96EFAD6E97AE96EFAFAE97AF964FAEEC
:1056B000AF97E0965FAEE097EE96FFADEE97E1967E
:1056C000FFAFE1972EADAA962FAFAA9723968FAD85
:1056D0002397AB968FAFAB972B969FAD2B97AC963E
:1056E0009FAFAC972796AFAD2797AD96AFAFAD976D
:1056F0007DCCE6961FAEE697E7961FAEE797E89655
:105700001FAEE897E9961FAEE997AE961FAEAE972B
:10571000AF961FAEAF97E0961FAEE097E1961FAE33
:10572000E197AA961FAEAA97AB961FAEAB97F8EC7F
:10573000AC96FFAFAC9722ECAD962FAFAD97A99684
:105740001FAEA997C6CC80E796E00E9460120E9427
:10575000C5030E94B81060E777E180E090E00E9406
:1057600007061092FD061092030764EF71E080E0D7
:1057700090E039CD1092E5060C94141A8093F80647
:105780000C940D1B953009F480CD963011F00C94DB
:105790000D1B8091FE069091FF060196863FF7E073
:1057A0009F070CF07FCD9093FF068093FE060C942C
:1057B0000D1B809301070C940D1B133011F00C94FA
:1057C0000D1B9091FC06913009F0CCCD8091F5062F
:1057D0008111C5CD9093F5068091FC068330A1F42C
:1057E00080910E0190910F0101968D3091050CF082
:1057F000CCCD90930F0180930E0160910E01605803
:1058000081E090E00E94812D8091FC06843011F0AF
:105810000C940D1B809110018111BACD81E0809311
:1058200010010C940D1B80930C010C940D1B843003
:1058300009F46ACD853009F474CD863009F47ECD43
:10584000873011F00C940D1B80910801811183CDDC
:1058500081E0809308010C940D1B853009F4DDCDA7
:10586000863011F00C941F1B8091FE069091FF066C
:1058700001978F3D27E092070CF4DACD9093FF0655
:105880008093FE060C941F1B833009F4D4CD833023
:1058900010F40C942B1B10920207853010F40C941A
:1058A0002B1B109203070C942B1B0E94972C08F4BF
:1058B00081E00895E89409C097FB3EF490958095A7
:1058C000709561957F4F8F4F9F4F9923A9F0F92FC6
:1058D00096E9BB279395F695879577956795B79544
:1058E000F111F8CFFAF4BB0F11F460FF1BC06F5F2A
:1058F0007F4F8F4F9F4F16C0882311F096E911C03C
:10590000772321F09EE8872F762F05C0662371F05C
:1059100096E8862F70E060E02AF09A95660F771F70
:10592000881FDAF7880F9695879597F90895990F4C
:105930000008550FAA0BE0E8FEEF16161706E80759
:10594000F907C0F012161306E407F50798F0621B7A
:10595000730B840B950B39F40A2661F0232B242B4F
:10596000252B21F408950A2609F4A140A6958FEF6E
:10597000811D811D08950E94CE2C0C943F2D0E9404
:10598000312D38F00E94382D20F0952311F00C9421
:10599000282D0C942E2D11240C94732D0E94502D23
:1059A00070F3959FC1F3950F50E0551F629FF00172
:1059B000729FBB27F00DB11D639FAA27F00DB11D8B
:1059C000AA1F649F6627B00DA11D661F829F222714
:1059D000B00DA11D621F739FB00DA11D621F839F9B
:1059E000A00D611D221F749F3327A00D611D231F71
:1059F000849F600D211D822F762F6A2F11249F57BF
:105A000050409AF0F1F088234AF0EE0FFF1FBB1FC1
:105A1000661F771F881F91505040A9F79E3F510580
:105A200080F00C94282D0C94732D5F3FE4F3983E86
:105A3000D4F3869577956795B795F795E7959F5F2A
:105A4000C1F7FE2B880F911D9695879597F90895BC
:105A500097F99F6780E870E060E008959FEF80EC21
:105A6000089500240A9416161706180609060895C4
:105A700000240A9412161306140605060895092E2A
:105A80000394000C11F4882352F0BB0F40F4BF2B99
:105A900011F460FF04C06F5F7F4F8F4F9F4F0895D9
:105AA00057FD9058440F551F59F05F3F71F04795CF
:105AB000880F97FB991F61F09F3F79F087950895B4
:105AC000121613061406551FF2CF4695F1DF08C0D3
:105AD000161617061806991FF1CF869571056105F0
